{
  "transactions": [
    {
      "hash": "0xd455cc6b8440e5a190507a0ca7f81b5e404a81dfb43c9ead7c174ddf3dc9e4e5",
      "transactionType": "CALL",
      "contractName": null,
      "contractAddress": "0x6b2b7ee74c71560410db0c569d128f4ac8650db7",
      "function": "initialise(uint40,uint40,uint256)",
      "arguments": [
        "1717695613",
        "604800",
        "10000"
      ],
      "transaction": {
        "from": "0x99d14a1d466e7a60a01aaa36610e052efcf5cd65",
        "to": "0x6b2b7ee74c71560410db0c569d128f4ac8650db7",
        "gas": "0x12f4f",
        "value": "0x0",
        "input": "0xddd25be8000000000000000000000000000000000000000000000000000000006661f47d0000000000000000000000000000000000000000000000000000000000093a800000000000000000000000000000000000000000000000000000000000002710",
        "nonce": "0x3",
        "chainId": "0x1"
      },
      "additionalContracts": [],
      "isFixedGasLimit": false
    }
  ],
  "receipts": [
    {
      "status": "0x1",
      "cumulativeGasUsed": "0xdb98",
      "logs": [
        {
          "address": "0x6b2b7ee74c71560410db0c569d128f4ac8650db7",
          "topics": [
            "0x112f3cbd45f910900888cf719e3bc92aeeece9327ad9db92c459ec5f49862f2e"
          ],
          "data": "0x000000000000000000000000000000000000000000000000000000006661f47d0000000000000000000000000000000000000000000000000000000000093a800000000000000000000000000000000000000000000000000000000000002710",
          "blockHash": "0xd1f3438e8f1888ec9c0901033bc1d493f2e2e295a4995f5f16f1d50accec031f",
          "blockNumber": "0x131ae48",
          "transactionHash": "0xd455cc6b8440e5a190507a0ca7f81b5e404a81dfb43c9ead7c174ddf3dc9e4e5",
          "transactionIndex": "0x0",
          "logIndex": "0x0",
          "removed": false
        }
      ],
      "logsBloom": "0x00000000000000000000000000000000000000000000000000000000000000000000000000000000000000000000000000000200000000000080000000000000000010000000000000000000000000000000000000000000000000000000000000000000000000000000000000000000000000000000000000000000000000000000000000000000000000000000000000000000010080000000000000000000000000000000000000000000008000000000000000000000000000000000000000000000000000000000000000000000000000000000000000000000000000000000000000000000000000000000000000000000000000000000000000000000",
      "type": "0x2",
      "transactionHash": "0xd455cc6b8440e5a190507a0ca7f81b5e404a81dfb43c9ead7c174ddf3dc9e4e5",
      "transactionIndex": "0x0",
      "blockHash": "0xd1f3438e8f1888ec9c0901033bc1d493f2e2e295a4995f5f16f1d50accec031f",
      "blockNumber": "0x131ae48",
      "gasUsed": "0xdb98",
      "effectiveGasPrice": "0x2",
      "blobGasUsed": "0x0",
      "from": "0x99d14a1d466e7a60a01aaa36610e052efcf5cd65",
      "to": "0x6b2b7ee74c71560410db0c569d128f4ac8650db7",
      "contractAddress": null
    }
  ],
  "libraries": [],
  "pending": [],
  "returns": {},
  "timestamp": 1717938738,
  "chain": 1,
  "commit": "b905ab3"
}